:0300000002038A6E
:0C038A00787FE4F6D8FD75816E0203D187
:0605C00001630001680167
:10041600D2A7D2A475642D7565017566047567410A
:1004260012000E1205F575100075112D7512007566
:1004360013017514007515047516007517417518A6
:1004460000751901751A00751B01751C00751D01D3
:10045600E4F51EF51FD2AFE51964014518700B12BD
:100466000145751A0085681B801A85116485136518
:10047600851566851767E4F51AF51BD2A7D2A4F58C
:09048600637568011202D480CEF6
:0E05F500438901758CDCE4F58AD2A9D28C22F0
:03000B000204E507
:1004E500C0E0C0F0C083C082C0D075D000C000C0DD
:1004F50001C002C003C004C005C006C007758CDC7E
:10050500758A0012048FD007D006D005D004D00319
:10051500D002D001D000D0D0D082D083D0F0D0E0AE
:0105250032A3
:10014500E56824FE603D1460621470030201D92441
:1001550003600302020D751C00751D01E563701235
:10016500E56475F064A4FDACF0E4FF120592C2A449
:10017500807BE4FF120603EF700302021375680229
:10018500020210E4F51CF51DE5637012E56575F0D6
:1001950064A4FDACF0E4FF120592D2A4804FE4FF05
:1001A500120603EF60687568038060751C00751D95
:1001B50001E5637012E56675F064A4FDACF0E4FF3B
:1001C500120592C2A78026E4FF120603EF603F7571
:1001D50068048037E4F51CF51DE5637014E5677563
:1001E500F064A4FDACF0E4FF120592D2A77563019B
:1001F50022E4FF120603EF6015756801E4F5630557
:0F0205001FE51F7009051E22756801E4F56322CD
:1005C600010C00010D00010F01010E0101300001B7
:0505D60008000109000E
:03002300020214C2
:10021400C0E0C0F0C083C082C0D075D000C000C0B0
:0D02240001C002C003C004C005C006C00731
:100231002098030202B9C298859962E50E24FE60F6
:10024100161460622402706DE562643A706A750E7C
:1002510002F508F5098061E562B40D05750E0380AC
:1002610057AF090509740A2FF8A662E509640270FF
:1002710047F509AF0A1205DCEFC454F0FEC006AF22
:100281000B1205DCD0E02FFFAE08050874312EF803
:10029100A607E50864017020E531650F601AE531B4
:1002A10064206014800DE562B40A08750C018508AC
:0802B1003080028000750E018F
:1002B900D007D006D005D004D003D002D001D00099
:0B02C900D0D0D082D083D0F0D0E03243
:1002D400E4FFF559F55AF55BE50C6035E4FEE530CD
:1002E40014FDEEC39D500A74312EF8E62FFF0E80E4
:1002F400EDEFF404FF74302530F8E6B5070E750D04
:1003040001D2957F787E001206198002C295E4F529
:100314000CE50D6070853259E55924FA60252403F3
:100324007058E533FE7C00E42534F55BEC3EF55A69
:10033400E535FEE42536FFEC3EFEAD5BAC5A12001B
:10034400268037E533FE7C00E42534F55BEC3EF58E
:100354005AC394004024D3E55B940FE55A940050AB
:1003640019E535FEE42536FFEC3EFEE55B25E02489
:1003740010F8A60608A607120526E4F50DC2957F17
:0503840032FE12061913
:010389002251
:100526007F3A120003E4F55CE55CC39530501E7417
:1005360031255CF812055D1200037431255CF8E67E
:10054600FFE4FD120561120003055C80DB7F0D12DE
:0705560000037F0A0200030D
:080026008E5C8F5D8C5E8D5F26
:10002E00E4F560F5617F3A120003E5317D01B50F0D
:10003E000EAF0F120561120003E4FDAF0F800C7FAF
:10004E0020120561120003E4FD7F201205611200EB
:10005E00037D017F03120561120003E4FD7F03128D
:10006E000561120003E55D25E0FF7D0112056112B9
:10007E000003E55D25E0FFE4FD120561120003E4D7
:10008E00F561C3E561955DE4955C506AE561255FB8
:10009E0025E02410F8E6FE08EEFF7D011205611240
:1000AE000003E561255F25E02410F8E6FE08EEFF6B
:1000BE00E4FD120561120003E561255F25E02410C1
:1000CE00F80812055D120003E561255F25E0241096
:1000DE00F808E6FFE4FD120561120003E561255FF5
:1000EE0025E02410F8E6FC08E6FDEC2560AE052EB2
:1000FE00F5600561808CE531B50F0DE560250F24A7
:10010E0003FFE55D25E08009E55D25E0FFE5602460
:10011E00232FF560E560F404F5607D01FF120561A3
:10012E00120003E4FDAF601205611200037F0D1291
:07013E0000037F0A02000329
:04055D00E6FF7D0137
:10056100ED7011EF540FFEC39400401EEED39409B9
:1005710050188010EFC4540FFEC39400400CEED30A
:100581009409500674302EFE800474372EFEAF0697
:010591002247
:1005DC00EFC39430400CEFD394395006EF24D0FE87
:0805EC008004EF24C9FEAF06F4
:0105F40022E4
:0A061900EF1F70011E144E70F7224F
:10000E00438920439850758DFD758BFDD28ED2ACF1
:01001E0022BF
:080003008F993099FDC299228A
:10059200EF75F006A42469F87601EF75F006A4243D
:1005A2006AF8E4F608F6EF75F006A4246CF8A604DF
:0E05B20008A605EF75F006A4246EF8E4F62204
:10048F00E4FFEF75F006A42469F8E66044EF75F019
:10049F0006A4246CF8E6FC08E6FDEF75F006A4242C
:1004AF006AF8E6FA08E6C39DEA9C5011EF75F0066C
:1004BF00A4246AF80806E6187017068014EF75F082
:1004CF0006A4246EF87601EF75F006A42469F8E40B
:0504DF00F60FBF01ADA6
:0104E40022F5
:0B060300EF75F006A4246EF8E6FF225D
:0B060E00EF75F006A4246EF8E4F6225D
:10039600020416E493A3F8E493A34003F68001F263
:1003A60008DFF48029E493A3F85407240CC8C33368
:1003B600C4540F4420C8834004F456800146F6DF37
:1003C600E4800B01020408102040809005C0E47E02
:1003D600019360BCA3FF543F30E509541FFEE4932C
:1003E600A360010ECF54C025E060A840B8E493A3F3
:1003F600FAE493A3F8E493A3C8C582C8CAC583CA1E
:10040600F0A3C8C582C8CAC583CADFE9DEE780BED5
:0105DB00001F
:00000001FF
