:030000000200D229
:0C00D200787FE4F6D8FD7581200201194A
:1001C100C103C101C102C1000115000114000116E2
:1001D10000011800011900011700010801010900BF
:1001E100010A00010B01010C00010D00010E0101CA
:0E01F1000F00011000011101011201011300A5
:10020000D2A7D2A412023AD2AFE5176028E4F517BC
:1002100012000E30020E0515E515B46407C202E4A3
:10022000F515D20330000E0514E514B46407C200BE
:0A023000E4F514D20112015E80CF44
:0E023A00438901758CDCE4F58AD2A9D28C22AE
:03000B00020248A6
:0A024800758CDC758A007517013211
:10000E00E50824FE601C047036D29520950F050974
:10001E00E509640A702C751601F50980257508022C
:10002E008016D29530950E050AE50AB40A14E4F549
:10003E0016F50A800D750801E4F509F50A800375B9
:10004E000801E50B24FE601C047036D29620960F34
:10005E00050CE50C6405702C751801F50C802575E2
:10006E000B028016D29630960E050DE50DB40514D2
:10007E00E4F518F50D800D750B01E4F50CF50D800A
:10008E0003750B01E50E24FE601B047033D297201E
:10009E00970E050FE50F64057029751901F50F22EE
:1000AE00750E028015D29730970D0510E510B40528
:1000BE0012E4F519F51022750E01E4F50FF5102274
:0300CE00750E01AB
:0100D100220C
:10015E00E51124FE600C047016E51660157511028B
:10016E008010E516700CC203C20175130180007574
:10017E001101E513603CE51224FE601C047030C2D0
:10018E00A4D202300302C202E5187003300323D258
:10019E00A4E4F51375120222C2A7D200300102C2E6
:1001AE0000E519700330010AD2A7E4F5138000753B
:0201BE0012012C
:0101C000221C
:1000DE00020200E493A3F8E493A34003F68001F236
:1000EE0008DFF48029E493A3F85407240CC8C33323
:1000FE00C4540F4420C8834004F456800146F6DFF2
:10010E00E4800B01020408102040809001C1E47EBF
:10011E00019360BCA3FF543F30E509541FFEE493E6
:10012E00A360010ECF54C025E060A840B8E493A3AD
:10013E00FAE493A3F8E493A3C8C582C8CAC583CAD8
:10014E00F0A3C8C582C8CAC583CADFE9DEE780BE90
:0101FF0000FF
:00000001FF
