:030000000200D229
:0C00D200787FE4F6D8FD75811702011953
:1001A90001140001160001170001150001080101E1
:1001B9000900010A00010B01010C00010D00010EEB
:1001C90001010F00011000011101011201011300C9
:1001DA00D2A7D2A41201F2D2AFE5156006E4F51552
:0801EA0012000E12015E80F10B
:0E01F200438901758CDCE4F58AD2A9D28C22F7
:03000B00020200EE
:0A020000758CDC758A00751501325B
:10000E00E50824FE601C047036D29520950F050974
:10001E00E509640A702C751401F50980257508022E
:10002E008016D29530950E050AE50AB40A14E4F549
:10003E0014F50A800D750801E4F509F50A800375BB
:10004E000801E50B24FE601C047036D29620960F34
:10005E00050CE50C6405702C751601F50C802575E4
:10006E000B028016D29630960E050DE50DB40514D2
:10007E00E4F516F50D800D750B01E4F50CF50D800C
:10008E0003750B01E50E24FE601B047033D297201E
:10009E00970E050FE50F64057029751701F50F22F0
:1000AE00750E028015D29730970D0510E510B40528
:1000BE0012E4F517F51022750E01E4F50FF5102276
:0300CE00750E01AB
:0100D100220C
:10015E00E51124FE600C047012E514601175110295
:10016E00800CE51470087513018000751101E513FC
:10017E006028E51224FE601204701CC2A4E516600D
:10018E0019D2A4E4F51375120222C2A7E517600A6C
:0A019E00D2A7E4F5138000751201EA
:0101A8002234
:1000DE000201DAE493A3F8E493A34003F68001F25D
:1000EE0008DFF48029E493A3F85407240CC8C33323
:1000FE00C4540F4420C8834004F456800146F6DFF2
:10010E00E4800B01020408102040809001A9E47ED7
:10011E00019360BCA3FF543F30E509541FFEE493E6
:10012E00A360010ECF54C025E060A840B8E493A3AD
:10013E00FAE493A3F8E493A3C8C582C8CAC583CAD8
:10014E00F0A3C8C582C8CAC583CADFE9DEE780BE90
:0101D9000025
:00000001FF
